:020000040000FA
:100000000C945E000C9486000C9486000C94860080
:100010000C9486000C9486000C9486000C94860048
:100020000C9486000C9486000C9486000C94860038
:100030000C9486000C9486000C9486000C94860028
:100040000C94C1020C9486000C948F020C946902EB
:100050000C9486000C9486000C9486000C94860008
:100060000C9486000C9486000000000024002700F9
:100070002A0000000000250028002B0004040404CE
:100080000404040402020202020203030303030342
:10009000010204081020408001020408102001021F
:1000A00004081020000000080002010000030407FB
:1000B00000000000000000000B03810411241FBE9B
:1000C000CFEFD8E0DEBFCDBF11E0A0E0B1E0E2E9C4
:1000D000FDE002C005900D92AC31B107D9F721E0E7
:1000E000ACE1B1E001C01D92AC3CB207E1F710E019
:1000F000CDE5D0E004C02197FE010E949105CC35EA
:10010000D107C9F70E9448030C94BC060C94000068
:10011000AF92BF92CF92DF92EF92FF920F931F9315
:10012000CF93DF936C017B018B01040F151FEB0153
:100130005E01AE18BF08C017D10759F06991D6010A
:10014000ED91FC910190F081E02DC6010995892B7C
:1001500079F7C501DF91CF911F910F91FF90EF903B
:10016000DF90CF90BF90AF900895FC01538D448DE8
:10017000252F30E0842F90E0821B930B541710F052
:10018000CF96089501970895FC01918D828D98175F
:1001900061F0A28DAE0FBF2FB11D5D968C91928D37
:1001A0009F5F9F73928F90E008958FEF9FEF089568
:1001B000FC01918D828D981731F0828DE80FF11D31
:1001C000858D90E008958FEF9FEF0895FC01918D4C
:1001D000228D892F90E0805C9F4F821B91098F7345
:1001E0009927089585E291E00E94E60021E0892B9D
:1001F00009F420E0822F089580E090E0892B29F017
:100200000E94F20081110C9400000895FC01A48D5D
:10021000A80FB92FB11DA35ABF4F2C91848D90E028
:1002200001968F739927848FA689B7892C93A0890B
:10023000B1898C91837080648C93938D848D981395
:1002400006C00288F389E02D80818F7D8083089528
:10025000EF92FF920F931F93CF93DF93EC0181E016
:10026000888F9B8D8C8D98131AC0E889F9898081BD
:1002700085FF15C09FB7F894EE89FF896083E889F0
:10028000F98980818370806480839FBF81E090E0E2
:10029000DF91CF911F910F91FF90EF900895F62E6F
:1002A0000B8D10E00F5F1F4F0F731127E02E8C8D09
:1002B0008E110CC00FB607FCFACFE889F98980814E
:1002C00085FFF5CFCE010E940601F1CFEB8DEC0F3B
:1002D000FD2FF11DE35AFF4FF0829FB7F8940B8F6B
:1002E000EA89FB8980818062CFCFCF93DF93EC01D5
:1002F000888D8823B9F0AA89BB89E889F9898C910E
:1003000085FD03C0808186FD0DC00FB607FCF7CFC9
:100310008C9185FFF2CF808185FFEDCFCE010E94C9
:100320000601E9CFDF91CF91089590E0FC01EC55F3
:10033000FF4F2491FC01E057FF4F3491FC01E4583A
:10034000FF4FE491EE23C9F0222339F0233001F16D
:10035000A8F4213019F1223029F1F0E0EE0FFF1F4F
:10036000EE58FF4FA591B4918FB7F894EC916111BD
:1003700026C030953E233C938FBF08952730A9F0C7
:100380002830C9F0243049F7809180008F7D03C068
:10039000809180008F7780938000DFCF84B58F7746
:1003A00084BDDBCF84B58F7DFBCF8091B0008F778C
:1003B0008093B000D2CF8091B0008F7DF9CF3E2BDB
:1003C000DACFCF93DF9390E0FC01E057FF4F249109
:1003D00084589F4FFC0184918823D1F090E0880FCE
:1003E000991FFC01E859FF4FA591B491FC01EE580B
:1003F000FF4FC591D49161110EC09FB7F8948C91B5
:10040000E22FE0958E238C932881E223E8839FBF1F
:10041000DF91CF9108958FB7F894EC91E22BEC9394
:100420008FBFF6CF3FB7F8948091210190912201C0
:10043000A0912301B091240126B5A89B05C02F3FB0
:1004400019F00196A11DB11D3FBFBA2FA92F982FFA
:100450008827BC01CD01620F711D811D911D42E0F5
:10046000660F771F881F991F4A95D1F708958F92BD
:100470009F92AF92BF92CF92DF92EF92FF924B0189
:100480005C010E9412026B017C010E9412026C1935
:100490007D098E099F09683E734081059105A8F387
:1004A00021E0821A9108A108B10888EEC80E83E005
:1004B000D81EE11CF11C81149104A104B10429F798
:1004C000FF90EF90DF90CF90BF90AF909F908F9074
:1004D00008951F920F920FB60F9211242F933F93FE
:1004E0004F935F936F937F938F939F93AF93BF933C
:1004F000EF93FF9385E291E00E940601FF91EF9157
:10050000BF91AF919F918F917F916F915F914F912B
:100510003F912F910F900FBE0F901F9018951F9233
:100520000F920FB60F9211242F938F939F93EF93F7
:10053000FF93E0913501F09136018081E0913B011C
:10054000F0913C0182FD1BC0908180913E018F5F44
:100550008F7320913F01821741F0E0913E01F0E05E
:10056000EB5DFE4F958F80933E01FF91EF919F9140
:100570008F912F910F900FBE0F901F901895808133
:10058000F4CF1F920F920FB60F9211242F933F9327
:100590008F939F93AF93BF9380911D0190911E0104
:1005A000A0911F01B091200130911C0123E0230F85
:1005B0002D3758F50196A11DB11D20931C01809384
:1005C0001D0190931E01A0931F01B0932001809103
:1005D000210190912201A0912301B0912401019663
:1005E000A11DB11D8093210190932201A0932301AD
:1005F000B0932401BF91AF919F918F913F912F9123
:100600000F900FBE0F901F90189526E8230F0296AB
:10061000A11DB11DD2CFCF93DF93E5E2F1E01382AC
:10062000128288EE93E0A0E0B0E084839583A683F5
:10063000B7838EE091E09183808385EC90E095878D
:10064000848784EC90E09787868780EC90E0918B9C
:10065000808B81EC90E0938B828B82EC90E0958B89
:10066000848B86EC90E0978B868B118E128E138E86
:10067000148EC2ECD1E01B821A828AE090E09D8346
:100680008C830E94970599838883DF91CF91089589
:10069000789484B5826084BD84B5816084BD85B55D
:1006A000826085BD85B5816085BD80916E00816069
:1006B00080936E001092810080918100826080930F
:1006C0008100809181008160809381008091800011
:1006D0008160809380008091B10084608093B1003C
:1006E0008091B00081608093B00080917A00846036
:1006F00080937A0080917A00826080937A00809162
:100700007A00816080937A0080917A00806880937B
:100710007A001092C10061E086E00E94E10161E090
:1007200087E00E94E10161E088E00E94E10160E071
:1007300082E00E94E10160E083E00E94E10160E06C
:1007400084E00E94E101E0913501F091360182E000
:100750008083E0913101F09132011082E091330108
:10076000F09134018FEC808310923D01E0913901CA
:10077000F0913A0186E08083E0913701F0913801F1
:10078000808180618083E0913701F0913801808120
:1007900088608083E0913701F09138018081806822
:1007A0008083E0913701F091380180818F7D8083D3
:1007B00080E480937C0080917A00806480937A004A
:1007C00080917A0086FDFCCF80917800609179005D
:1007D000762F682F072E000C880B990B6115710579
:1007E0008105910511F00E94250543E0842E912C8E
:1007F000A12CB12C50E0E52E50E0F52E0E94D6043D
:10080000C091C201D091C3012091C4013091C501B2
:10081000C20FD31FA50194010E942E056F5F7F4F69
:100820008F4F9F4F68838091C4019091C5010196BD
:100830009093C5018093C401C091C601D091C701B6
:100840008C179D073CF1CE01880F991F0E949705D8
:100850008C018091C2019091C301F801DC019D01DE
:10086000281B390B2C173D071CF42D912193F7CF32
:10087000009711F00E9433060093C2011093C30148
:100880008091C6019091C701880F991F9093C7016D
:100890008093C601D0E0C0E08091C4019091C50171
:1008A000C817D90714F510E0C817D90738F4E09134
:1008B000C201F091C301EC0FFD1F10811B5F61E0CD
:1008C000812F0E94950168EE73E080E090E00E9425
:1008D000370260E0812F0E94950164EF71E080E0B3
:1008E00090E00E9437022196D7CFE114F10409F479
:1008F00085CF0E94F200882309F480CF0E94000077
:100900007DCF8091C2019091C301009711F00C94AA
:10091000330608958F929F92AF92BF92CF92DF924B
:10092000EF92FF92CF93DF93EC01688179818A8106
:100930009B81611571058105910521F464E279EDD2
:100940008BE597E02DE133EF41E050E00E942E056A
:1009500049015A019B01AC01A7EAB1E40E944D058F
:100960006B017C01ACEEB4EFA50194010E945B0524
:10097000C60ED71EE81EF91EF7FE06C081E0C81A93
:10098000D108E10880E8F80AC882D982EA82FB82AD
:10099000C701B6019F77DF91CF91FF90EF90DF9075
:1009A000CF90BF90AF909F908F9008958F929F921D
:1009B000AF92BF92CF92DF92EF92FF9260910001CF
:1009C00070910101809102019091030161157105FF
:1009D0008105910521F464E279ED8BE597E02DE145
:1009E00033EF41E050E00E942E0549015A019B017E
:1009F000AC01A7EAB1E40E944D056B017C01ACEEAD
:100A0000B4EFA50194010E945B05C60ED71EE81E37
:100A1000F91EF7FE06C081E0C81AD108E10880E897
:100A2000F80AC0920001D0920101E0920201F09216
:100A30000301C701B6019F77FF90EF90DF90CF9041
:100A4000BF90AF909F908F90089560930001709336
:100A5000010180930201909303010895052E97FBF5
:100A60001EF400940E94450557FD07D00E946005C2
:100A700007FC03D04EF40C944505509540953095F5
:100A800021953F4F4F4F5F4F0895909580957095FA
:100A900061957F4F8F4F9F4F08950E948205A59FBC
:100AA000900DB49F900DA49F800D911D1124089569
:100AB000B7FF0C944D050E944D05821B930B0895C2
:100AC000A1E21A2EAA1BBB1BFD010DC0AA1FBB1F52
:100AD000EE1FFF1FA217B307E407F50720F0A21BC4
:100AE000B30BE40BF50B661F771F881F991F1A9431
:100AF00069F760957095809590959B01AC01BD015B
:100B0000CF010895A29FB001B39FC001A39F700DB4
:100B1000811D1124911DB29F700D811D1124911D05
:100B20000895EE0FFF1F0590F491E02D09940F93A7
:100B30001F93CF93DF938230910510F482E090E011
:100B4000E091CA01F091CB0130E020E0B0E0A0E0FC
:100B5000309799F42115310509F44AC0281B390B47
:100B600024303105D8F58A819B816115710589F1A1
:100B7000FB0193838283FE0111C040815181028178
:100B8000138148175907E0F04817590799F410974F
:100B900061F012960C93129713961C933296CF0124
:100BA000DF91CF911F910F9108950093CA01109387
:100BB000CB01F4CF2115310551F04217530738F01E
:100BC000A901DB019A01BD01DF01F801C1CFEF01ED
:100BD000F9CF9093CB018093CA01CDCFFE01E20FF4
:100BE000F31F819391932250310939832883D7CF02
:100BF0002091C8013091C901232B41F420910601B5
:100C0000309107013093C9012093C801209104015C
:100C1000309105012115310541F42DB73EB74091C2
:100C2000080150910901241B350BE091C801F09196
:100C3000C901E217F307A0F42E1B3F0B2817390751
:100C400078F0AC014E5F5F4F2417350748F04E0F28
:100C50005F1F5093C9014093C801819391939FCF27
:100C6000F0E0E0E09CCFCF93DF930097E9F0FC0148
:100C7000329713821282A091CA01B091CB01ED018B
:100C800030E020E01097A1F420813181820F931F82
:100C90002091C8013091C9012817390709F061C0B6
:100CA000F093C901E093C801DF91CF910895EA0163
:100CB000CE17DF07E8F54A815B819E01411551059A
:100CC000B1F7E901FB83EA8349915991C40FD51F1C
:100CD000EC17FD0761F4808191810296840F951FC6
:100CE000E90199838883828193819B838A83F0E0E1
:100CF000E0E012968D919C9113970097B9F52D9194
:100D00003C911197CD010296820F931F2091C8014B
:100D10003091C9012817390739F6309751F51092EB
:100D2000CB011092CA01B093C901A093C801BCCFF6
:100D3000D383C28340815181840F951FC817D9077F
:100D400061F44E5F5F4F88819981480F591F51832D
:100D500040838A819B81938382832115310509F029
:100D6000B0CFF093CB01E093CA019ECFFD01DC012F
:100D7000C0CF13821282D7CF10E0CDE5D0E004C0FF
:100D8000FE010E9491052196CE35D107C9F7F8944E
:100D9000FFCF010000000000CC0180000000000037
:0E0DA00028018800B5007501E600C400D800E7
:107E0000112484B714BE81FFF0D085E080938100F7
:107E100082E08093C00088E18093C10086E0809377
:107E2000C20080E18093C4008EE0C9D0259A86E02C
:107E300020E33CEF91E0309385002093840096BBD3
:107E4000B09BFECF1D9AA8958150A9F7CC24DD24C4
:107E500088248394B5E0AB2EA1E19A2EF3E0BF2EE7
:107E6000A2D0813461F49FD0082FAFD0023811F036
:107E7000013811F484E001C083E08DD089C08234E0
:107E800011F484E103C0853419F485E0A6D080C0E4
:107E9000853579F488D0E82EFF2485D0082F10E0AE
:107EA000102F00270E291F29000F111F8ED06801E7
:107EB0006FC0863521F484E090D080E0DECF843638
:107EC00009F040C070D06FD0082F6DD080E0C81688
:107ED00080E7D80618F4F601B7BEE895C0E0D1E017
:107EE00062D089930C17E1F7F0E0CF16F0E7DF06D8
:107EF00018F0F601B7BEE89568D007B600FCFDCFD4
:107F0000A601A0E0B1E02C9130E011968C91119780
:107F100090E0982F8827822B932B1296FA010C0160
:107F200087BEE89511244E5F5F4FF1E0A038BF0790
:107F300051F7F601A7BEE89507B600FCFDCF97BE46
:107F4000E89526C08437B1F42ED02DD0F82E2BD052
:107F50003CD0F601EF2C8F010F5F1F4F84911BD097
:107F6000EA94F801C1F70894C11CD11CFA94CF0C13
:107F7000D11C0EC0853739F428D08EE10CD085E9AC
:107F80000AD08FE07ACF813511F488E018D01DD067
:107F900080E101D065CF982F8091C00085FFFCCF94
:107FA0009093C60008958091C00087FFFCCF809118
:107FB000C00084FD01C0A8958091C6000895E0E648
:107FC000F0E098E1908380830895EDDF803219F02E
:107FD00088E0F5DFFFCF84E1DECF1F93182FE3DFCA
:107FE0001150E9F7F2DF1F91089580E0E8DFEE27F6
:047FF000FF270994CA
:027FFE00040479
:00000001FF
